{
  "contractName": "AssetProducingRegistryLogic",
  "abi": [
    {
      "constant": false,
      "inputs": [
        {
          "name": "_assetId",
          "type": "uint256"
        },
        {
          "name": "_newSmartMeter",
          "type": "address"
        }
      ],
      "name": "updateSmartMeter",
      "outputs": [],
      "payable": false,
      "stateMutability": "nonpayable",
      "type": "function"
    },
    {
      "constant": true,
      "inputs": [
        {
          "name": "_assetId",
          "type": "uint256"
        }
      ],
      "name": "getAssetLocation",
      "outputs": [
        {
          "name": "country",
          "type": "bytes32"
        },
        {
          "name": "region",
          "type": "bytes32"
        },
        {
          "name": "zip",
          "type": "bytes32"
        },
        {
          "name": "city",
          "type": "bytes32"
        },
        {
          "name": "street",
          "type": "bytes32"
        },
        {
          "name": "houseNumber",
          "type": "bytes32"
        },
        {
          "name": "gpsLatitude",
          "type": "bytes32"
        },
        {
          "name": "gpsLongitude",
          "type": "bytes32"
        }
      ],
      "payable": false,
      "stateMutability": "view",
      "type": "function"
    },
    {
      "constant": false,
      "inputs": [
        {
          "name": "_dbAddress",
          "type": "address"
        }
      ],
      "name": "init",
      "outputs": [],
      "payable": false,
      "stateMutability": "nonpayable",
      "type": "function"
    },
    {
      "constant": false,
      "inputs": [
        {
          "name": "_newLogic",
          "type": "address"
        }
      ],
      "name": "update",
      "outputs": [],
      "payable": false,
      "stateMutability": "nonpayable",
      "type": "function"
    },
    {
      "constant": false,
      "inputs": [],
      "name": "createAsset",
      "outputs": [],
      "payable": false,
      "stateMutability": "nonpayable",
      "type": "function"
    },
    {
      "constant": true,
      "inputs": [],
      "name": "db",
      "outputs": [
        {
          "name": "",
          "type": "address"
        }
      ],
      "payable": false,
      "stateMutability": "view",
      "type": "function"
    },
    {
      "constant": false,
      "inputs": [
        {
          "name": "_assetId",
          "type": "uint256"
        },
        {
          "name": "_country",
          "type": "bytes32"
        },
        {
          "name": "_region",
          "type": "bytes32"
        },
        {
          "name": "_zip",
          "type": "bytes32"
        },
        {
          "name": "_city",
          "type": "bytes32"
        },
        {
          "name": "_street",
          "type": "bytes32"
        },
        {
          "name": "_houseNumber",
          "type": "bytes32"
        },
        {
          "name": "_gpsLatitude",
          "type": "bytes32"
        },
        {
          "name": "_gpsLongitude",
          "type": "bytes32"
        }
      ],
      "name": "initLocation",
      "outputs": [],
      "payable": false,
      "stateMutability": "nonpayable",
      "type": "function"
    },
    {
      "constant": true,
      "inputs": [],
      "name": "getAssetListLength",
      "outputs": [
        {
          "name": "",
          "type": "uint256"
        }
      ],
      "payable": false,
      "stateMutability": "view",
      "type": "function"
    },
    {
      "constant": true,
      "inputs": [],
      "name": "cooContract",
      "outputs": [
        {
          "name": "",
          "type": "address"
        }
      ],
      "payable": false,
      "stateMutability": "view",
      "type": "function"
    },
    {
      "constant": true,
      "inputs": [
        {
          "name": "_role",
          "type": "uint8"
        },
        {
          "name": "_caller",
          "type": "address"
        }
      ],
      "name": "isRole",
      "outputs": [
        {
          "name": "",
          "type": "bool"
        }
      ],
      "payable": false,
      "stateMutability": "view",
      "type": "function"
    },
    {
      "constant": true,
      "inputs": [
        {
          "name": "_assetId",
          "type": "uint256"
        }
      ],
      "name": "getActive",
      "outputs": [
        {
          "name": "",
          "type": "bool"
        }
      ],
      "payable": false,
      "stateMutability": "view",
      "type": "function"
    },
    {
      "constant": false,
      "inputs": [
        {
          "name": "_assetId",
          "type": "uint256"
        },
        {
          "name": "_active",
          "type": "bool"
        }
      ],
      "name": "setActive",
      "outputs": [],
      "payable": false,
      "stateMutability": "nonpayable",
      "type": "function"
    },
    {
      "constant": true,
      "inputs": [
        {
          "name": "_assetId",
          "type": "uint256"
        }
      ],
      "name": "getLastSmartMeterReadFileHash",
      "outputs": [
        {
          "name": "datalog",
          "type": "bytes32"
        }
      ],
      "payable": false,
      "stateMutability": "view",
      "type": "function"
    },
    {
      "inputs": [
        {
          "name": "_cooContract",
          "type": "address"
        }
      ],
      "payable": false,
      "stateMutability": "nonpayable",
      "type": "constructor"
    },
    {
      "anonymous": false,
      "inputs": [
        {
          "indexed": true,
          "name": "_assetId",
          "type": "uint256"
        },
        {
          "indexed": true,
          "name": "_fileHash",
          "type": "bytes32"
        },
        {
          "indexed": false,
          "name": "_oldMeterRead",
          "type": "uint256"
        },
        {
          "indexed": false,
          "name": "_newMeterRead",
          "type": "uint256"
        },
        {
          "indexed": false,
          "name": "_smartMeterDown",
          "type": "bool"
        },
        {
          "indexed": false,
          "name": "_certificatesCreatedForWh",
          "type": "uint256"
        },
        {
          "indexed": false,
          "name": "_oldCO2OffsetReading",
          "type": "uint256"
        },
        {
          "indexed": false,
          "name": "_newCO2OffsetReading",
          "type": "uint256"
        },
        {
          "indexed": false,
          "name": "_serviceDown",
          "type": "bool"
        }
      ],
      "name": "LogNewMeterRead",
      "type": "event"
    },
    {
      "anonymous": false,
      "inputs": [
        {
          "indexed": false,
          "name": "sender",
          "type": "address"
        },
        {
          "indexed": true,
          "name": "_assetId",
          "type": "uint256"
        }
      ],
      "name": "LogAssetCreated",
      "type": "event"
    },
    {
      "anonymous": false,
      "inputs": [
        {
          "indexed": true,
          "name": "_assetId",
          "type": "uint256"
        }
      ],
      "name": "LogAssetFullyInitialized",
      "type": "event"
    },
    {
      "anonymous": false,
      "inputs": [
        {
          "indexed": true,
          "name": "_assetId",
          "type": "uint256"
        }
      ],
      "name": "LogAssetSetActive",
      "type": "event"
    },
    {
      "anonymous": false,
      "inputs": [
        {
          "indexed": true,
          "name": "_assetId",
          "type": "uint256"
        }
      ],
      "name": "LogAssetSetInactive",
      "type": "event"
    },
    {
      "constant": false,
      "inputs": [
        {
          "name": "_assetId",
          "type": "uint256"
        },
        {
          "name": "_smartMeter",
          "type": "address"
        },
        {
          "name": "_owner",
          "type": "address"
        },
        {
          "name": "_operationalSince",
          "type": "uint256"
        },
        {
          "name": "_active",
          "type": "bool"
        }
      ],
      "name": "initGeneral",
      "outputs": [],
      "payable": false,
      "stateMutability": "nonpayable",
      "type": "function"
    },
    {
      "constant": false,
      "inputs": [
        {
          "name": "_assetId",
          "type": "uint256"
        },
        {
          "name": "_assetType",
          "type": "uint8"
        },
        {
          "name": "_capacityWh",
          "type": "uint256"
        },
        {
          "name": "_registryCompliance",
          "type": "uint8"
        },
        {
          "name": "_otherGreenAttributes",
          "type": "bytes32"
        },
        {
          "name": "_typeOfPublicSupport",
          "type": "bytes32"
        }
      ],
      "name": "initProducingProperties",
      "outputs": [],
      "payable": false,
      "stateMutability": "nonpayable",
      "type": "function"
    },
    {
      "constant": false,
      "inputs": [
        {
          "name": "_assetId",
          "type": "uint256"
        },
        {
          "name": "_newMeterRead",
          "type": "uint256"
        },
        {
          "name": "_smartMeterDown",
          "type": "bool"
        },
        {
          "name": "_lastSmartMeterReadFileHash",
          "type": "bytes32"
        },
        {
          "name": "_CO2OffsetMeterRead",
          "type": "uint256"
        },
        {
          "name": "_CO2OffsetServiceDown",
          "type": "bool"
        }
      ],
      "name": "saveSmartMeterRead",
      "outputs": [],
      "payable": false,
      "stateMutability": "nonpayable",
      "type": "function"
    },
    {
      "constant": false,
      "inputs": [
        {
          "name": "_assetId",
          "type": "uint256"
        },
        {
          "name": "_co2",
          "type": "uint256"
        }
      ],
      "name": "setCO2UsedForCertificate",
      "outputs": [],
      "payable": false,
      "stateMutability": "nonpayable",
      "type": "function"
    },
    {
      "constant": false,
      "inputs": [
        {
          "name": "_assetId",
          "type": "uint256"
        },
        {
          "name": "_whUsed",
          "type": "uint256"
        }
      ],
      "name": "useWhForCertificate",
      "outputs": [
        {
          "name": "",
          "type": "bool"
        }
      ],
      "payable": false,
      "stateMutability": "nonpayable",
      "type": "function"
    },
    {
      "constant": true,
      "inputs": [
        {
          "name": "_assetId",
          "type": "uint256"
        }
      ],
      "name": "getAssetGeneral",
      "outputs": [
        {
          "name": "_smartMeter",
          "type": "address"
        },
        {
          "name": "_owner",
          "type": "address"
        },
        {
          "name": "_operationalSince",
          "type": "uint256"
        },
        {
          "name": "_lastSmartMeterReadWh",
          "type": "uint256"
        },
        {
          "name": "_active",
          "type": "bool"
        },
        {
          "name": "_lastSmartMeterReadFileHash",
          "type": "bytes32"
        }
      ],
      "payable": false,
      "stateMutability": "view",
      "type": "function"
    },
    {
      "constant": true,
      "inputs": [
        {
          "name": "_assetId",
          "type": "uint256"
        }
      ],
      "name": "getAssetProducingProperties",
      "outputs": [
        {
          "name": "assetType",
          "type": "uint256"
        },
        {
          "name": "capacityWh",
          "type": "uint256"
        },
        {
          "name": "certificatesCreatedForWh",
          "type": "uint256"
        },
        {
          "name": "lastSmartMeterCO2OffsetRead",
          "type": "uint256"
        },
        {
          "name": "cO2UsedForCertificate",
          "type": "uint256"
        },
        {
          "name": "registryCompliance",
          "type": "uint256"
        },
        {
          "name": "otherGreenAttributes",
          "type": "bytes32"
        },
        {
          "name": "typeOfPublicSupport",
          "type": "bytes32"
        }
      ],
      "payable": false,
      "stateMutability": "view",
      "type": "function"
    },
    {
      "constant": true,
      "inputs": [
        {
          "name": "_assetId",
          "type": "uint256"
        }
      ],
      "name": "getAssetType",
      "outputs": [
        {
          "name": "",
          "type": "uint8"
        }
      ],
      "payable": false,
      "stateMutability": "view",
      "type": "function"
    },
    {
      "constant": true,
      "inputs": [
        {
          "name": "_assetId",
          "type": "uint256"
        }
      ],
      "name": "getCompliance",
      "outputs": [
        {
          "name": "c",
          "type": "uint8"
        }
      ],
      "payable": false,
      "stateMutability": "view",
      "type": "function"
    },
    {
      "constant": true,
      "inputs": [
        {
          "name": "_assetId",
          "type": "uint256"
        }
      ],
      "name": "getCo2UsedForCertificate",
      "outputs": [
        {
          "name": "",
          "type": "uint256"
        }
      ],
      "payable": false,
      "stateMutability": "view",
      "type": "function"
    },
    {
      "constant": true,
      "inputs": [
        {
          "name": "_assetId",
          "type": "uint256"
        },
        {
          "name": "_wh",
          "type": "uint256"
        }
      ],
      "name": "getCoSaved",
      "outputs": [
        {
          "name": "",
          "type": "uint256"
        }
      ],
      "payable": false,
      "stateMutability": "view",
      "type": "function"
    }
  ],
  "bytecode": "0x6060604052341561000f57600080fd5b604051602080611d558339810160405280805160008054600160a060020a03909216600160a060020a03199092169190911790555050611d01806100546000396000f3006060604052600436106101245763ffffffff60e060020a6000350416630705244281146101295780630bbb888a1461014d5780631314394d1461018757806319ab453c146101e45780631c1b8772146102035780631e13970b146102225780632bc32e111461024f5780632f1380741461027857806331a5daf3146102a85780634d655aff146102bb57806350ddca55146102ea57806376b240ee146103035780637b5d3d3e1461032e578063883583ce146103445780639963aece1461035a5780639a4b8c0d14610389578063ade1e9921461039f578063ae51439c146103f9578063b1f2cc9d1461040c578063bb5a389e1461041f578063c53fb1a514610444578063cff4da061461045a578063e60a955d14610486578063f7105c05146104a1575b600080fd5b341561013457600080fd5b61014b600435600160a060020a03602435166104b7565b005b341561015857600080fd5b610163600435610555565b6040518082600381111561017357fe5b60ff16815260200191505060405180910390f35b341561019257600080fd5b61019d60043561060d565b60405197885260208801969096526040808801959095526060870193909352608086019190915260a085015260c084015260e0830191909152610100909101905180910390f35b34156101ef57600080fd5b61014b600160a060020a03600435166106d0565b341561020e57600080fd5b61014b600160a060020a036004351661072d565b341561022d57600080fd5b61023b6004356024356107b1565b604051901515815260200160405180910390f35b341561025a57600080fd5b61014b600435602435604435151560643560843560a43515156109ad565b341561028357600080fd5b61014b600435600160a060020a03602435811690604435166064356084351515610e10565b34156102b357600080fd5b61014b610eff565b34156102c657600080fd5b6102ce610fbf565b604051600160a060020a03909116815260200160405180910390f35b34156102f557600080fd5b61014b600435602435610fce565b341561030e57600080fd5b61031c6004356024356111c8565b60405190815260200160405180910390f35b341561033957600080fd5b61031c6004356113eb565b341561034f57600080fd5b61019d60043561145e565b341561036557600080fd5b61014b60043560243560443560643560843560a43560c43560e435610104356114c1565b341561039457600080fd5b610163600435611592565b34156103aa57600080fd5b6103b5600435611611565b604051600160a060020a03968716815294909516602085015260408085019390935260608401919091521515608083015260a082019290925260c001905180910390f35b341561040457600080fd5b61031c6116bb565b341561041757600080fd5b6102ce611724565b341561042a57600080fd5b61023b60ff60043516600160a060020a0360243516611733565b341561044f57600080fd5b61023b6004356118aa565b341561046557600080fd5b61014b60043560ff602435811690604435906064351660843560a4356118fd565b341561049157600080fd5b61014b60043560243515156119ef565b34156104ac57600080fd5b61031c600435611aec565b600154600160a060020a031615156104ce57600080fd5b60026104da8133611733565b15156104e557600080fd5b600154600160a060020a0316630ff85b94848460405160e060020a63ffffffff85160281526004810192909252600160a060020a03166024820152604401600060405180830381600087803b151561053c57600080fd5b6102c65a03f1151561054d57600080fd5b505050505050565b6001546000908190600160a060020a031663883583ce8483604051610100015260405160e060020a63ffffffff8416028152600481019190915260240161010060405180830381600087803b15156105ac57600080fd5b6102c65a03f115156105bd57600080fd5b5050506040518051906020018051906020018051906020018051906020018051906020018051906020018051906020018051905050509550505050505080600381111561060657fe5b9392505050565b6001546000908190819081908190819081908190600160a060020a0316631314394d8a83604051610100015260405160e060020a63ffffffff8416028152600481019190915260240161010060405180830381600087803b151561067057600080fd5b6102c65a03f1151561068157600080fd5b5050506040518051906020018051906020018051906020018051906020018051906020018051906020018051906020018051905097509750975097509750975097509750919395975091939597565b60006106dc8133611733565b15156106e757600080fd5b600154600160a060020a0316156106fd57600080fd5b506001805473ffffffffffffffffffffffffffffffffffffffff1916600160a060020a0392909216919091179055565b600054600160a060020a03908116903316811461074957600080fd5b600154600160a060020a031663a6f9dae18360405160e060020a63ffffffff8416028152600160a060020a039091166004820152602401600060405180830381600087803b151561079957600080fd5b6102c65a03f115156107aa57600080fd5b5050505050565b6001546000908190600160a060020a031615156107cd57600080fd5b60008054600160a060020a03169063ced7f44990604051602001526040518163ffffffff1660e060020a028152600401602060405180830381600087803b151561081657600080fd5b6102c65a03f1151561082757600080fd5b5050506040518051905080600160a060020a031633600160a060020a031614151561085157600080fd5b6001548490600160a060020a031663353fc6c38760006040516020015260405160e060020a63ffffffff84160281526004810191909152602401602060405180830381600087803b15156108a457600080fd5b6102c65a03f115156108b557600080fd5b5050506040518051600154920193508391600160a060020a0316905063042157c28760006040516020015260405160e060020a63ffffffff84160281526004810191909152602401602060405180830381600087803b151561091657600080fd5b6102c65a03f1151561092757600080fd5b505050604051805190501015151561093e57600080fd5b600154600160a060020a03166398766e8a868460405160e060020a63ffffffff851602815260048101929092526024820152604401600060405180830381600087803b151561098c57600080fd5b6102c65a03f1151561099d57600080fd5b505050600192505b505092915050565b600154600160a060020a031615156109c457600080fd5b600154600160a060020a031663ed9c058b8760006040516020015260405160e060020a63ffffffff84160281526004810191909152602401602060405180830381600087803b1515610a1557600080fd5b6102c65a03f11515610a2657600080fd5b5050506040518051905080600160a060020a031633600160a060020a0316141515610a5057600080fd5b600154600160a060020a031663c53fb1a58860006040516020015260405160e060020a63ffffffff84160281526004810191909152602401602060405180830381600087803b1515610aa157600080fd5b6102c65a03f11515610ab257600080fd5b505050604051805190501515610ac757600080fd5b600154849088907fe45acadd06cd9b354bd940dd24cd458d64a46ff62f06dbcbc65e6474f73c4a8e90600160a060020a031663042157c28360006040516020015260405160e060020a63ffffffff84160281526004810191909152602401602060405180830381600087803b1515610b3e57600080fd5b6102c65a03f11515610b4f57600080fd5b50505060405180516001549091508a908a90600160a060020a031663353fc6c38e60006040516020015260405160e060020a63ffffffff84160281526004810191909152602401602060405180830381600087803b1515610baf57600080fd5b6102c65a03f11515610bc057600080fd5b5050506040518051600154909150600160a060020a0316634f9d76158f60006040516020015260405160e060020a63ffffffff84160281526004810191909152602401602060405180830381600087803b1515610c1c57600080fd5b6102c65a03f11515610c2d57600080fd5b505050604051805190508a8a60405196875260208701959095529215156040808701919091526060860192909252608085015260a084019190915290151560c083015260e0909101905180910390a3600154600160a060020a031663a60b6fdc888660405160e060020a63ffffffff851602815260048101929092526024820152604401600060405180830381600087803b1515610cca57600080fd5b6102c65a03f11515610cdb57600080fd5b5050600154600160a060020a031690506357c3bc60888860405160e060020a63ffffffff851602815260048101929092526024820152604401600060405180830381600087803b1515610d2d57600080fd5b6102c65a03f11515610d3e57600080fd5b5050600154600160a060020a0316905063fc56a99c888560405160e060020a63ffffffff851602815260048101929092526024820152604401600060405180830381600087803b1515610d9057600080fd5b6102c65a03f11515610da157600080fd5b5050600154600160a060020a031690506336016d71884260405160e060020a63ffffffff851602815260048101929092526024820152604401600060405180830381600087803b1515610df357600080fd5b6102c65a03f11515610e0457600080fd5b50505050505050505050565b600154600160a060020a03161515610e2757600080fd5b600483610e348282611733565b1515610e3f57600080fd5b6002610e4b8133611733565b1515610e5657600080fd5b600154600160a060020a0316630216a1388989898960008a8160405160e060020a63ffffffff8a160281526004810197909752600160a060020a0395861660248801529390941660448601526064850191909152608484015290151560a483015260c482015260e401600060405180830381600087803b1515610ed857600080fd5b6102c65a03f11515610ee957600080fd5b505050610ef588611b3f565b5050505050505050565b60006002610f0d8133611733565b1515610f1857600080fd5b600154600160a060020a03166331a5daf36000604051602001526040518163ffffffff1660e060020a028152600401602060405180830381600087803b1515610f6057600080fd5b6102c65a03f11515610f7157600080fd5b505050604051805190509150817fd3ab0c36887772472a25b1c1cecc0dee794b7c5ca472edaa2db255346878ee6b33604051600160a060020a03909116815260200160405180910390a25050565b600154600160a060020a031681565b60015460009081908190600160a060020a03161515610fec57600080fd5b60008054600160a060020a03169063ced7f44990604051602001526040518163ffffffff1660e060020a028152600401602060405180830381600087803b151561103557600080fd5b6102c65a03f1151561104657600080fd5b5050506040518051905080600160a060020a031633600160a060020a031614151561107057600080fd5b600154600160a060020a0316637b5d3d3e8760006040516020015260405160e060020a63ffffffff84160281526004810191909152602401602060405180830381600087803b15156110c157600080fd5b6102c65a03f115156110d257600080fd5b5050506040518051600154909550600160a060020a03169050634f9d76158760006040516020015260405160e060020a63ffffffff84160281526004810191909152602401602060405180830381600087803b151561113057600080fd5b6102c65a03f1151561114157600080fd5b505050604051805193505083850191508282111561115e57600080fd5b600154600160a060020a03166350ddca55878460405160e060020a63ffffffff851602815260048101929092526024820152604401600060405180830381600087803b15156111ac57600080fd5b6102c65a03f115156111bd57600080fd5b505050505050505050565b600154600090819081908190819081908190600160a060020a031663042157c28a836040516020015260405160e060020a63ffffffff84160281526004810191909152602401602060405180830381600087803b151561122757600080fd5b6102c65a03f1151561123857600080fd5b5050506040518051600154909750600160a060020a0316905063353fc6c38a60006040516020015260405160e060020a63ffffffff84160281526004810191909152602401602060405180830381600087803b151561129657600080fd5b6102c65a03f115156112a757600080fd5b50505060405180519550508486039350858511156112c157fe5b8315156112d157600096506113df565b600154600160a060020a0316634f9d76158a60006040516020015260405160e060020a63ffffffff84160281526004810191909152602401602060405180830381600087803b151561132257600080fd5b6102c65a03f1151561133357600080fd5b5050506040518051600154909450600160a060020a03169050637b5d3d3e8a60006040516020015260405160e060020a63ffffffff84160281526004810191909152602401602060405180830381600087803b151561139157600080fd5b6102c65a03f115156113a257600080fd5b505050604051805192505050808203828211156113bb57fe5b620f42408489620f4240028115156113cf57fe5b0482028115156113db57fe5b0496505b50505050505092915050565b600154600090600160a060020a0316637b5d3d3e83836040516020015260405160e060020a63ffffffff84160281526004810191909152602401602060405180830381600087803b151561143e57600080fd5b6102c65a03f1151561144f57600080fd5b50505060405180519392505050565b6001546000908190819081908190819081908190600160a060020a031663883583ce8a83604051610100015260405160e060020a63ffffffff8416028152600481019190915260240161010060405180830381600087803b151561067057600080fd5b600154600160a060020a031615156114d857600080fd5b60026114e48133611733565b15156114ef57600080fd5b600154600160a060020a0316639963aece8b8b8b8b8b8b8b8b8b60405160e060020a63ffffffff8c160281526004810199909952602489019790975260448801959095526064870193909352608486019190915260a485015260c484015260e483015261010482015261012401600060405180830381600087803b151561157557600080fd5b6102c65a03f1151561158657600080fd5b505050610e048a611b3f565b600154600090600160a060020a0316639a4b8c0d83836040516020015260405160e060020a63ffffffff84160281526004810191909152602401602060405180830381600087803b15156115e557600080fd5b6102c65a03f115156115f657600080fd5b50505060405180519050600381111561160b57fe5b92915050565b60015460009081908190819081908190600160a060020a031663ade1e992888360405160c0015260405160e060020a63ffffffff8416028152600481019190915260240160c060405180830381600087803b151561166e57600080fd5b6102c65a03f1151561167f57600080fd5b5050506040518051906020018051906020018051906020018051906020018051906020018051959d949c50929a50909850965091945092505050565b600154600090600160a060020a031663ae51439c82604051602001526040518163ffffffff1660e060020a028152600401602060405180830381600087803b151561170557600080fd5b6102c65a03f1151561171657600080fd5b505050604051805191505090565b600054600160a060020a031681565b6000805481908190600160a060020a038086169116638da5cb5b83604051602001526040518163ffffffff1660e060020a028152600401602060405180830381600087803b151561178357600080fd5b6102c65a03f1151561179457600080fd5b50505060405180519050600160a060020a031614156117b657600192506109a5565b60008054600160a060020a031690635c7460d690604051602001526040518163ffffffff1660e060020a028152600401602060405180830381600087803b15156117ff57600080fd5b6102c65a03f1151561181057600080fd5b50505060405180519050600160a060020a031663265209f28560006040516020015260405160e060020a63ffffffff8416028152600160a060020a039091166004820152602401602060405180830381600087803b151561187057600080fd5b6102c65a03f1151561188157600080fd5b50505060405180519050915084600681111561189957fe5b60020a919091161515949350505050565b600154600090600160a060020a031663c53fb1a583836040516020015260405160e060020a63ffffffff84160281526004810191909152602401602060405180830381600087803b151561143e57600080fd5b600154600160a060020a0316151561191457600080fd5b60026119208133611733565b151561192b57600080fd5b600154600160a060020a03166384487d818888600381111561194957fe5b6000808a60008b600381111561195b57fe5b8b8b60405160e060020a63ffffffff8c160281526004810199909952602489019790975260448801959095526064870193909352608486019190915260a485015260c484015260e483015261010482015261012401600060405180830381600087803b15156119c957600080fd5b6102c65a03f115156119da57600080fd5b5050506119e687611b3f565b50505050505050565b600154600160a060020a03161515611a0657600080fd5b6002611a128133611733565b1515611a1d57600080fd5b600154600160a060020a031663e60a955d848460405160e060020a63ffffffff8516028152600481019290925215156024820152604401600060405180830381600087803b1515611a6d57600080fd5b6102c65a03f11515611a7e57600080fd5b5050508115611ab957827fbb4a2f3fc0f65f1ee98dc140226f7718191ba94892efdc55613785ccbf00a8e860405160405180910390a2611ae7565b827f61f3fbe0c2049de9b0219669983a937b4377c1dced582b6a720a87b49ae3c08b60405160405180910390a25b505050565b600154600090600160a060020a031663f7105c0583836040516020015260405160e060020a63ffffffff84160281526004810191909152602401602060405180830381600087803b151561143e57600080fd5b60015460009081908190600160a060020a031663c6bc1a7685836040516060015260405160e060020a63ffffffff84160281526004810191909152602401606060405180830381600087803b1515611b9657600080fd5b6102c65a03f11515611ba757600080fd5b50505060405180519060200180519060200180519050925092509250828015611bcd5750815b8015611bd7575080155b15611ccf5760018054600160a060020a03169063054dddde90869060405160e060020a63ffffffff8516028152600481019290925215156024820152604401600060405180830381600087803b1515611c2f57600080fd5b6102c65a03f11515611c4057600080fd5b505050837f1952717c0461c82af1fee2f55fe9887230a44916d9214bcdf89905bd2c3918a960405160405180910390a2600154600160a060020a03166336016d71854260405160e060020a63ffffffff851602815260048101929092526024820152604401600060405180830381600087803b1515611cbe57600080fd5b6102c65a03f115156119e657600080fd5b505050505600a165627a7a72305820ae32d3cd2dbee19e660fef3e7bbeb048ab8f48eee1836d34c81f1b3984f73d8d0029",
  "source": "// Copyright 2018 Energy Web Foundation\n// This file is part of the Origin Application brought to you by the Energy Web Foundation,\n// a global non-profit organization focused on accelerating blockchain technology across the energy sector, \n// incorporated in Zug, Switzerland.\n//\n// The Origin Application is free software: you can redistribute it and/or modify\n// it under the terms of the GNU General Public License as published by\n// the Free Software Foundation, either version 3 of the License, or\n// (at your option) any later version.\n// This is distributed in the hope that it will be useful,\n// but WITHOUT ANY WARRANTY and without an implied warranty of\n// MERCHANTABILITY or FITNESS FOR A PARTICULAR PURPOSE.  See the\n// GNU General Public License for more details, at <http://www.gnu.org/licenses/>.\n//\n// @authors: slock.it GmbH, Jonas Bentke, jonas.bentke@slock.it\n\npragma solidity ^0.4.18;\n\nimport \"./AssetProducingRegistryDB.sol\";\nimport \"./UserLogic.sol\";\nimport \"./CoO.sol\";\nimport \"./RoleManagement.sol\";\nimport \"./CertificateLogic.sol\";\nimport \"./Updatable.sol\";\nimport \"./AssetLogic.sol\";\n\n\n/// @title The logic contract for the asset registration\n/// @notice This contract provides the logic that determines how the data is stored\n/// @dev Needs a valid AssetProducingRegistryDB contract to function correctly\ncontract AssetProducingRegistryLogic is AssetLogic {\n\n    event LogNewMeterRead(uint indexed _assetId, bytes32 indexed _fileHash, uint _oldMeterRead, uint _newMeterRead, bool _smartMeterDown, uint _certificatesCreatedForWh, uint _oldCO2OffsetReading, uint _newCO2OffsetReading, bool _serviceDown);\n    \n    enum AssetType {\n        Wind,\n        Solar,\n        RunRiverHydro,\n        BiomassGas\n    }\n\n    enum Compliance{\n        none,\n        IREC,\n        EEC,\n        TIGR\n    }\n\n    /// @notice Constructor\n    /// @param _cooContract The address of the coo contract\n    function AssetProducingRegistryLogic(CoO _cooContract) \n        public\n        RoleManagement(_cooContract) \n    {\n  \n    }\n\n    /// @notice Sets the general information of an asset in the database\n    /// @param _assetId the The index / identifier of an asset\n    /// @param _smartMeter The address of the smart meter\n    /// @param _owner The address of the asset owner\n    /// @param _operationalSince the timestamp of when the asset was activated for production\n    /// @param _active true if active\n    function initGeneral(\n        uint _assetId, \n        address _smartMeter,\n        address _owner,\n        uint _operationalSince,\n        bool _active\n    ) \n        external\n        isInitialized\n        userHasRole(RoleManagement.Role.AssetManager, _owner)\n        onlyRole(RoleManagement.Role.AssetAdmin)\n    {  \n        AssetProducingRegistryDB((db)).initGeneral(_assetId, _smartMeter, _owner, _operationalSince,0, _active, 0x0);\n        checkForFullAsset(_assetId);\n    }\n    \n    /// @notice sets the producing properties of an asset\n    /// @param _assetId the id belonging to an asset\n    /// @param _assetType the asset-type\n    /// @param _capacityWh the capacity of the asset\n    /// @param _registryCompliance the compliance\n    /// @param _otherGreenAttributes other green attributes\n    /// @param _typeOfPublicSupport type of public support\n    function initProducingProperties(\n        uint _assetId,\n        AssetType _assetType,\n        uint _capacityWh,\n        Compliance _registryCompliance,\n        bytes32 _otherGreenAttributes,\n        bytes32 _typeOfPublicSupport\n    )\n        external\n        isInitialized\n        onlyRole(RoleManagement.Role.AssetAdmin)\n    {\n        AssetProducingRegistryDB((db)).initProducing(_assetId, uint(_assetType), 0, 0, _capacityWh, 0, uint(_registryCompliance), _otherGreenAttributes, _typeOfPublicSupport);\n        checkForFullAsset(_assetId);\n\n    }\n\n    /// @notice Logs meter read\n    /// @param _assetId The id belonging to an entry in the asset registry\n    /// @param _newMeterRead The current meter read of the asset\n    /// @param _smartMeterDown flag if there was an error with the smart meter\n    /// @param _lastSmartMeterReadFileHash Last meter read file hash\n    /// @param _CO2OffsetServiceDown flag if there was an error with the co2-offset-server\n    /// @dev The client needs to check if the blockgas limit could be reached and if so the log should be splitted \n    function saveSmartMeterRead(\n        uint _assetId, \n        uint _newMeterRead, \n        bool _smartMeterDown, \n        bytes32 _lastSmartMeterReadFileHash, \n        uint _CO2OffsetMeterRead, \n        bool _CO2OffsetServiceDown \n    ) \n        external\n        isInitialized\n        onlyAccount(AssetProducingRegistryDB(db).getSmartMeter(_assetId))\n    {\n        require(db.getActive(_assetId));\n\n     \n        LogNewMeterRead(_assetId, _lastSmartMeterReadFileHash, AssetProducingRegistryDB(db).getLastSmartMeterReadWh(_assetId), _newMeterRead, _smartMeterDown, AssetProducingRegistryDB(db).getCertificatesCreatedForWh(_assetId), AssetProducingRegistryDB(db).getlastSmartMeterCO2OffsetRead(_assetId), _CO2OffsetMeterRead, _CO2OffsetServiceDown);\n        /// @dev need to check if new meter read is higher then the old one\n        AssetProducingRegistryDB(db).setLastSmartMeterReadFileHash(_assetId, _lastSmartMeterReadFileHash);\n        AssetProducingRegistryDB(db).setLastSmartMeterReadWh(_assetId, _newMeterRead);\n        AssetProducingRegistryDB(db).setLastCO2OffsetReading(_assetId,_CO2OffsetMeterRead);\n        db.setLastSmartMeterReadDate(_assetId,now);\n    }\n\n    /// @notice function to set the amount of CO2 used for certificates\n    /// @param _assetId the assetId\n    /// @param _co2 the amount of CO2 saved\n    function setCO2UsedForCertificate(uint _assetId, uint _co2)\n        external \n        isInitialized\n        onlyAccount(address(cooContract.certificateRegistry()))\n    {\n        uint currentCO = AssetProducingRegistryDB(address(db)).getCo2UsedForCertificate(_assetId);\n        uint fullCO = AssetProducingRegistryDB(address(db)).getlastSmartMeterCO2OffsetRead(_assetId);\n        uint temp = currentCO + _co2;\n        \n        // we have to check that we can only account that amount of CO2 that was actually saved\n        require(temp <= fullCO);\n        AssetProducingRegistryDB(address(db)).setCO2UsedForCertificate(_assetId, temp);\n    }\n\n   \n    /// @notice increases the amount of wh used for the creation of certificates\n    /// @param _assetId The id belonging to an entry in the asset registry\n    /// @param _whUsed The amount of wh that is about to be used for a new certificate\n    function useWhForCertificate(uint _assetId, uint _whUsed) \n        external\n        isInitialized \n        onlyAccount(address(cooContract.certificateRegistry()))\n        returns(bool)\n    {\n        uint temp = AssetProducingRegistryDB(address(db)).getCertificatesCreatedForWh(_assetId) + _whUsed;\n        require(AssetProducingRegistryDB(address(db)).getLastSmartMeterReadWh(_assetId) >= temp);\n        AssetProducingRegistryDB(address(db)).setCertificatesCreatedForWh(_assetId, temp);\n        return true;\n    }\n\n    /// @notice Gets the general information of an asset\n    /// @param _assetId the id belonging to an entry in the asset registry\n    /// @return the general information of an asset\n    function getAssetGeneral(uint _assetId) \n        external\n        constant\n        returns(\n            address _smartMeter,\n            address _owner,\n            uint _operationalSince,\n            uint _lastSmartMeterReadWh,\n            bool _active,\n            bytes32 _lastSmartMeterReadFileHash\n            )\n    {\n        return AssetProducingRegistryDB(address(db)).getAssetGeneral(_assetId);\n    }\n\n    /// @notice get the producing properties of an asset\n    /// @param _assetId the id belonging to an entry in the asset registry\n    /// @return the producing properties\n    function getAssetProducingProperties(uint _assetId)\n        external \n        view \n        returns(\n            uint assetType,\n            uint capacityWh,\n            uint certificatesCreatedForWh,\n            uint lastSmartMeterCO2OffsetRead,\n            uint cO2UsedForCertificate,\n            uint registryCompliance,\n            bytes32 otherGreenAttributes,\n            bytes32 typeOfPublicSupport\n        )\n    {\n        return AssetProducingRegistryDB(address(db)).getAssetProducingProperties(_assetId);\n    }\n    /// @notice Function to get the Asset-Type\n    /// @dev The asset-type gets converted from unsigned integer to an Asset-type enum, can still be accessed as uint\n    /// @param _assetId The identifier / index of an asset\n    /// @return AssetType as enum \n    function getAssetType(uint _assetId)\n        external\n        constant\n        returns(\n            AssetType \n        )\n    {\n        return AssetType(AssetProducingRegistryDB(address(db)).getAssetType(_assetId));\n    }\n\n    /// @notice function to get the compliance\n    /// @param _assetId the assetId\n    /// @return the compliance\n    function getCompliance(uint _assetId)\n        external\n        constant \n        returns (Compliance c)\n    {\n        var ( , , , , , ctemp, , ) = AssetProducingRegistryDB(address(db)).getAssetProducingProperties(_assetId);\n        c = Compliance(ctemp); \n    }\n\n    /// @notice Function to get the amount of already used CO2 for creating certificates\n    /// @param _assetId The identifier / index of an asset\n    /// @return the amount of already used CO2 for creating certificates\n    function getCo2UsedForCertificate(uint _assetId) \n        external \n        view \n        returns (uint) \n    {\n        return AssetProducingRegistryDB(address(db)).getCo2UsedForCertificate(_assetId);\n    }\n\n    /// @notice function to calculated how much CO2-offset can be used for a certificate\n    /// @param _assetId The identifier / index of an asset\n    /// @param _wh The amount of wh produced\n    /// @return amount of CO2-offset used for a certificate\n    function getCoSaved(uint _assetId, uint _wh) external view returns(uint) {\n        uint lastRead = AssetProducingRegistryDB(address(db)).getLastSmartMeterReadWh(_assetId);\n        uint lastUsedWh = AssetProducingRegistryDB(address(db)).getCertificatesCreatedForWh(_assetId);\n        uint availableWh = lastRead - lastUsedWh;\n       \n        // we have to check for an underflow and if there are even availale Wh\n        assert(lastUsedWh <= lastRead);\n        if(availableWh == 0) return 0;\n\n        uint coRead = AssetProducingRegistryDB(address(db)).getlastSmartMeterCO2OffsetRead(_assetId);\n        uint coUsed = AssetProducingRegistryDB(address(db)).getCo2UsedForCertificate(_assetId);\n        uint availableCo = coRead - coUsed;\n        assert(coUsed <= coRead);\n        return (availableCo*((_wh*1000000)/availableWh))/1000000;\n    }\n}",
  "sourcePath": "/Users/mkuechler/ewf/CoO/contracts/AssetProducingRegistryLogic.sol",
  "compiler": {
    "name": "solc",
    "version": "0.4.19+commit.c4cbbb05.Emscripten.clang"
  },
  "schemaVersion": "2.0.0",
  "updatedAt": "2018-04-09T15:13:13.240Z"
}